:100000000C9462000C948A000C948A000C948A0070
:100010000C948A000C948A000C948A000C948A0038
:100020000C948A000C948A000C948A000C948A0028
:100030000C948A000C948A000C948A000C948A0018
:100040000C940E060C948A000C94DC050C94B605F6
:100050000C948A000C948A000C948A000C948A00F8
:100060000C948A000C948A000000000025002800EF
:100070002B0000000000240027002A0000000000E0
:1000800023002600290004040404040404040202DA
:100090000202020203030303030301020408102007
:1000A0004080010204081020010204081020000012
:1000B0000008000201000003040700000000000027
:1000C0000000580611241FBECFEFD8E0DEBFCDBF21
:1000D00022E0A8E1B1E001C01D92A53DB207E1F721
:1000E00011E0A0E0B1E0E4E8F5E102C005900D9276
:1000F000A831B107D9F710E0C2E6D0E004C02197DB
:10010000FE010E942909C136D107C9F70E94F306F2
:100110000C94C00A0C940000EF92FF921F93CF93AF
:10012000DF931F92CDB7DEB77C01162F80E8E8166B
:10013000F1040CF45BC0A1EEEA16F10474F58091B1
:100140003E0290913F02DC01ED91FC910190F08123
:10015000E02D6E2D4983099580913E0290913F02DA
:10016000DC01ED91FC91612F6F770190F081E02D22
:100170000995E894E4F84981B0ECEB16F104B1F18B
:1001800080913E0290913F02DC01ED91FC91642F41
:100190006F770190F081E02D22C0C701885F91093F
:1001A000089720F5BDEFEB16F1044CF48AEFE81642
:1001B000F10454F4A8EFEA16F104C1F405C0C70134
:1001C0008E5F9109029790F480913E0290913F02D8
:1001D000DC01ED91FC910190F081E02D6E2D0F90EE
:1001E000DF91CF911F91FF90EF9009940F90DF91D5
:1001F000CF911F91FF90EF90089580E480937C0051
:1002000080917A00806480937A0080917A0086FDE4
:10021000FCCF809178002091790090E0922B089596
:10022000CF92DF92EF92FF920F931F93CF93DF93C2
:100230006C017A018B01C0E0D0E0CE15DF0589F0BA
:10024000D8016D918D01D601ED91FC910190F08165
:10025000E02DC6010995892B11F47E0102C021967B
:10026000ECCFC701DF91CF911F910F91FF90EF90DD
:10027000DF90CF900895FC01918D828D981761F0E9
:10028000828DDF01A80FB11D5D968C91928D9F5FCD
:100290009F73928F90E008958FEF9FEF0895FC0178
:1002A000918D828D981731F0828DE80FF11D858D2B
:1002B00090E008958FEF9FEF0895FC01918D228DBE
:1002C000892F90E0805C9F4F821B91098F73992743
:1002D00008958DE791E00E945D0121E0892B09F4EA
:1002E00020E0822F0895FC01848DDF01A80FB11D4D
:1002F000A35ABF4F2C91848D90E001968F7399275C
:10030000848FA689B7892C93A089B1898C91806448
:100310008C93938D848D981306C00288F389E02D09
:1003200080818F7D80830895EF92FF920F931F93BA
:10033000CF93DF93EC0181E0888F9B8D8C8D981398
:1003400005C0E889F989808185FD24C0F62E0B8DD2
:1003500010E00F5F1F4F0F731127E02E8C8DE812F6
:100360000CC00FB607FCFACFE889F989808185FFB8
:10037000F5CFCE010E947301F1CF8B8DFE01E80F06
:10038000F11DE35AFF4FF0820B8FEA89FB898081D0
:10039000806207C0EE89FF896083E889F9898081DE
:1003A0008064808381E090E0DF91CF911F910F9175
:1003B000FF90EF900895CF93DF93EC01888D882311
:1003C000C9F0EA89FB89808185FD05C0A889B989C2
:1003D0008C9186FD0FC00FB607FCF5CF808185FF9D
:1003E000F2CFA889B9898C9185FFEDCFCE010E940B
:1003F0007301E7CFDF91CF91089580E090E0892BE2
:1004000029F00E94690181110C9400000895833045
:1004100081F028F4813099F08230A1F0089587307E
:10042000A9F08830B9F08430D1F4809180008F7DBC
:1004300003C0809180008F7780938000089584B5F9
:100440008F7702C084B58F7D84BD08958091B00000
:100450008F7703C08091B0008F7D8093B0000895A6
:10046000CF93DF93282F30E0F901E255FF4F8491BD
:10047000F901E656FF4FD491F901EA57FF4FC491B5
:10048000CC2391F081110E940702EC2FF0E0EE0FD7
:10049000FF1FE458FF4FA591B491EC91ED2381E04B
:1004A00090E021F480E002C080E090E0DF91CF9105
:1004B0000895CF93DF9390E0FC01E656FF4F24911F
:1004C000FC01EA57FF4F8491882361F190E0880F87
:1004D000991FFC01EE58FF4FC591D491FC01E859DA
:1004E000FF4FA591B491611109C09FB7F89488811D
:1004F000209582238883EC912E230BC0623061F417
:100500009FB7F8943881822F809583238883EC915C
:100510002E2B2C939FBF06C08FB7F894E8812E2B0B
:1005200028838FBFDF91CF9108952FB7F894609102
:100530002701709128018091290190912A012FBFF4
:100540000895CF92DF92EF92FF92CF93DF93FC0159
:10055000148A158A168A178A8081918197FD72C044
:100560004EE123E230E0F894A18DB28D12969C9179
:100570001297808D8095892312968C93A48DB58DCA
:1005800011969C911197838D8095892311968C9358
:10059000A48DB58D12969C911297838D8095892399
:1005A00012968C93A48DB58D11969C911197838D85
:1005B000892B11968C93A48DB58D12969C911297D0
:1005C000838D8095892312968C93C9010197F1F749
:1005D000A48DB58D11969C911197838D809589235B
:1005E00011968C93A48DB58D12969C911297838D44
:1005F0008095892312968C93A18DB28D12969C9131
:100600001297808D892B12968C937894C48DD58DFA
:10061000638D5881562384899589A689B789C084BA
:10062000D184E284F384511111C08C159D05AE056F
:10063000BF0560F40196A11DB11D848B958BA68B1F
:10064000B78BE7CF6FEF7FEFCB01D3C0C816D906CA
:10065000EA06FB0608F45CC0F894A48DB58D1296EA
:100660009C911297838D892B12968C93A48DB58DB6
:1006700011969C911197838D892B11968C93A48D43
:10068000B58D12969C911297838D892B12968C931F
:10069000A48DB58D11969C911197838D809589239A
:1006A00011968C93A48DB58D12969C911297838D83
:1006B0008095892312968C93A18DB28D12969C9170
:1006C0001297808D8095892312968C937894C48D8F
:1006D000D58D638D5881562384899589A689B789DC
:1006E000C084D184E284F384552369F08C159D0580
:1006F000AE05BF0540F40196A11DB11D848B958BFD
:10070000A68BB78BE7CF8C159D05AE05BF0528F0EE
:100710006EEF7FEF8FEF9FEF6CC0415009F023CF5A
:10072000EF010E949502C888D988EA88FB88DC011D
:10073000CB018C199D09AE09BF09CC84DD84EE8400
:10074000FF84C816D906EA06FB0640F5CC88DD888A
:10075000EE88FF886A817B818C819D81C616D706D1
:10076000E806F90629F0C61AD70AE80AF90A03C00A
:10077000C12CD12C76010E9465092DEC3CEC4CEC8F
:100780005DE30E94CB090E942F09CB01770FAA0BD2
:10079000BB0BC816D906EA06FB06E0F08C899D89DA
:1007A000AE89BF89CA80DB80EC80FD808C159D05F9
:1007B000AE05BF0520F48A839B83AC83BD83CA80CA
:1007C000DB80EC80FD80BC01CD016C197D098E09B8
:1007D0009F090FC08FEF9FEFAFEFBFE08A839B832E
:1007E000AC83BD830E949502688B798B8A8B9B8B2F
:1007F000D5CFDF91CF91FF90EF90DF90CF9008950C
:10080000BF92CF92DF92EF92FF920F931F93CF93FD
:10081000DF93EC01062FF42E81E090E0998388832A
:1008200086E391E09F838E8380EE95E7A9E0B0E0B8
:1008300088879987AA87BB8780E29EE4A0E0B0E022
:100840008C879D87AE87BF87643120F08FEF9FEF45
:100850009983888323E12F1520F48FEF9FEF9983ED
:10086000888361E0802F0E94590260E08F2D0E94F2
:10087000590210E0F801E255FF4F8491F801E65665
:10088000FF4F6F01B4900A571F4FF801E490EE201C
:1008900099F081110E9407028E2D90E0880F991F18
:1008A00088599F4FFC01A591B4918FB7F8949C9102
:1008B000B094B922BC928FBFF601C490C88EF801E3
:1008C0000491E02FF0E0EE0FFF1FE458FF4F8591F9
:1008D00094919A8F898F4F2D50E0FA01E656FF4F81
:1008E000E491EB8FFA01EA57FF4FE491F0E0EE0F4D
:1008F000FF1FE458FF4F859194919D8F8C8F8FEF50
:100900009FEFAFEFBFE08A839B83AC83BD830E94E0
:100910009502688B798B8A8B9B8BDF91CF911F918E
:100920000F91FF90EF90DF90CF90BF9008952F929E
:100930003F924F925F926F927F928F929F92AF926F
:10094000BF92CF92DF92EF92FF920F931F93CF93BC
:10095000DF93CDB7DEB72C970FB6F894DEBF0FBE8E
:10096000CDBF82E00E9430028C01882E80931D0151
:1009700083E00E9430026C0180931C0184E00E949D
:1009800030025C0180931B0185E00E9430027C01F3
:1009900080931A0186E00E9430029A8789877984C1
:1009A0008093190187E00E943002AC01682F809388
:1009B0001801980133273A83298399249394E110ED
:1009C000912C292D30E049805A80422253222985DA
:1009D0003A8533273C832B83242135213E832D8385
:1009E00081E0711080E0E82FF0E0F887EF839985CF
:1009F0009E21772473946111712CA72DB0E0292FCB
:100A000030E01D0122223322B5016C297D29772790
:100A1000662463948110612C262D30E03C872B875F
:100A200092012A233B23CA28E985E423E621CE2A22
:100A3000E02FE423E823CE2A9721C92A87216822C0
:100A40006C28972009210629CF80D88489819A8132
:100A5000C822D922C228D328C62AD72AED81FE81EE
:100A6000CE2ADF2A83E0CC0CDD1C8A95E1F70C2925
:100A70008B849C848422952228283928262A372A88
:100A8000222A332A220C331C220C331C02294E2129
:100A90005F218F81988548235923EB85FC85EE21C2
:100AA000FF214E2B5F2B642B752BEB81FC81AE233A
:100AB000BF23A62BB72B8D819E81A82BB92B2A2B68
:100AC0003B2B220F331F022B0093210188E00E9451
:100AD00030027C01182F80931F0189E00E943002B0
:100AE000982F80931E018E21FF24EE0CFF1CE82A14
:100AF00021E0911120E081E0111180E08223E82AB9
:100B00008CE0E89E802D1124805D8093200190E090
:100B1000800F911D21E00F3009F420E0289F802DE7
:100B2000112491E00F3009F090E020910101929F93
:100B3000902D1124892B2C960FB6F894DEBF0FBE92
:100B4000CDBFDF91CF911F910F91FF90EF90DF907C
:100B5000CF90BF90AF909F908F907F906F905F905D
:100B60004F903F902F9008950E94600A1F920F921D
:100B70000FB60F9211242F933F934F935F936F9370
:100B80007F938F939F93AF93BF93EF93FF938DE7E3
:100B900091E00E947301FF91EF91BF91AF919F91FE
:100BA0008F917F916F915F914F913F912F910F9016
:100BB0000FBE0F901F9018951F920F920FB60F92B5
:100BC00011242F938F939F93EF93FF93E0918D01C7
:100BD000F0918E018081E0919301F091940182FD6A
:100BE00012C09081809196018F5F8F732091970141
:100BF000821751F0E0919601F0E0E358FE4F958F97
:100C00008093960101C08081FF91EF919F918F9118
:100C10002F910F900FBE0F901F9018951F920F925B
:100C20000FB60F9211242F933F938F939F93AF93FF
:100C3000BF938091270190912801A0912901B09143
:100C40002A013091260123E0230F2D3720F401964D
:100C5000A11DB11D05C026E8230F0296A11DB11DDF
:100C6000209326018093270190932801A0932901C6
:100C7000B0932A018091220190912301A091240137
:100C8000B09125010196A11DB11D80932201909381
:100C90002301A0932401B0932501BF91AF919F91AF
:100CA0008F913F912F910F900FBE0F901F9018952D
:100CB000CF93DF93ADE7B1E013961C921E9212978B
:100CC00048EE53E060E070E014964D935D936D93B1
:100CD0007C9317978CE091E011969C938E9385EC12
:100CE00090E01D969C938E931C9784EC90E01F9649
:100CF0009C938E931E9780EC90E051969C938E93DC
:100D0000509781EC90E053969C938E93529782EC8F
:100D100090E055969C938E93549786EC90E057966E
:100D20009C938E93569759961C9259975A961C925B
:100D30005A975B961C925B975C961C925C97EAE1D3
:100D4000F2E0B5A3A4A316A217A210A615A614A696
:100D500017A616A68FEF9FEF91AB80AB93AB82AB3C
:100D600083E080934E0215AA17AA16AA10AE11AE00
:100D70001092D40280E8A4E5B2E0ED0119928A95C0
:100D8000E9F711821082138212821582148217826F
:100D9000168211861086138612861586148617868B
:100DA0001686118A108A138A128A158A148A178A5B
:100DB000168A118E108E138E128E158E148E178E2B
:100DC000168E11A210A213A212A24BE06AE08FE5C8
:100DD00091E00E9400044DE06CE081E491E0DF913D
:100DE000CF910C940004789484B5826084BD84B55E
:100DF000816084BD85B5826085BD85B5816085BD16
:100E000080916E00816080936E00109281008091CD
:100E10008100826080938100809181008160809355
:100E20008100809180008160809380008091B1007A
:100E300084608093B1008091B00081608093B000A5
:100E400080917A00846080937A0080917A00826039
:100E500080937A0080917A00816080937A008091FB
:100E60007A00806880937A001092C10060E082E08E
:100E70000E94590260E083E00E94590260E084E031
:100E80000E94590260E085E00E94590260E086E01D
:100E90000E94590260E087E00E94590260E088E009
:100EA0000E94590260E089E00E945902E0913E02EE
:100EB000F0913F02A089B18982E08C93A485B58529
:100EC0001C92A685B7858FE38C93108EA489B58973
:100ED00086E08C93A289B3898C9180618C93A289DE
:100EE000B3898C9188608C93A289B3898C91806836
:100EF0008C930288F389E02D80818F7D808310920E
:100F00004002109242021092410210924902109245
:100F1000480210924702109246028FEF9FEF909383
:100F20004B0280934A0290934D0280934C021092A0
:100F3000D402109251021092500210924F0210925D
:100F400052021092530280914E0281708260816041
:100F500080934E0288248A9433E0932EA12CB12CE6
:100F6000412C512C32014A943324339452E0252EE3
:100F70000E94FD009093400180933F012091030166
:100F8000213081F4C3970CF456C10E9495026093FE
:100F90003B0170933C0180933D0190933E01209270
:100FA000030149C1223081F50E94FD009093400168
:100FB00080933F01C3972CF10E94950200913B0161
:100FC00010913C0120913D0130913E01DC01CB01AB
:100FD000801B910BA20BB30B0497A105B10508F47C
:100FE0002AC10E94970480930201809301014FE778
:100FF000682F80E990E00E948C0023E02093030199
:101000001AC13092030117C1233009F014C1C297ED
:1010100054F44FE76091010180E890E00E948C0059
:1010200030920301C5C00E949502009137011091D2
:1010300038012091390130913A01DC01CB01801B4C
:10104000910BA20BB30B4597A105B10508F4B0C0F5
:101050000E94FD009093400180933F01EC01E297D4
:10106000DD0FCC0BDC2FC095092E000CAA0BBB0B9F
:101070009C01AD012253310941095109AFE7B0E0AC
:101080000E94840A62302FEF7207820792075CF099
:1010900060382FE77207810591053CF4A3019201A6
:1010A0000E94650A03C020E001C02FE72C230091B5
:1010B000360110E0020F111D27FD1A9515950795B1
:1010C00000933501009336018FE591E00E94A10263
:1010D0006B017C0170932E0160932D0181E491E0FE
:1010E0000E94A10270932C0160932B01DB012FEF72
:1010F0003FE10E94220962302CEF72072FEF820736
:1011000092076CF0611520EE72072FE782079105B8
:101110004CF4A50194010E94650AE90105C0C0E0F4
:10112000D0E002C0CFEFDFE1D6012FEF3FE10E9418
:10113000220962302CEF72072FEF8207920764F0CA
:10114000611520EE72072FE78207910544F4A5018F
:1011500094010E94650A05C020E030E002C02FEF34
:101160003FE1C21BD30BD0933401C0933301402F16
:1011700067E080EB90E00E948C00609133017091F9
:101180003401705EAB01440F452F441F550B519540
:101190004F776F7780EE90E00E948C000E9495025E
:1011A00060933701709338018093390190933A012D
:1011B0000E949704C82F8093020180910001C817F4
:1011C00051F00E94950260932F017093300180933B
:1011D0003101909332010E94950200912F011091EC
:1011E00030012091310130913201DC01CB01801BB3
:1011F000910BA20BB30B0497A105B105E0F0609130
:101200000101C617C1F04FE780E890E00E948C0012
:1012100060910201609301014FE780E990E00E9434
:101220008C000E94950260932F017093300180938F
:1012300031019093320180910201809300010E945C
:10124000FD0196CE0E94B10AB7FF0895821B930B51
:101250000895EE0FFF1F0590F491E02D09940E9470
:1012600036096894B1110C94C50908950E94AA0921
:1012700088F09F5798F0B92F9927B751B0F0E1F057
:10128000660F771F881F991F1AF0BA95C9F714C007
:10129000B13091F00E94C409B1E008950C94C409E2
:1012A000672F782F8827B85F39F0B93FCCF3869540
:1012B00077956795B395D9F73EF49095809570959D
:1012C00061957F4F8F4F9F4F0895E89409C097FB1A
:1012D0003EF490958095709561957F4F8F4F9F4F0D
:1012E0009923A9F0F92F96E9BB279395F695879551
:1012F00077956795B795F111F8CFFAF4BB0F11F414
:1013000060FF1BC06F5F7F4F8F4F9F4F16C08823BA
:1013100011F096E911C0772321F09EE8872F762FF0
:1013200005C0662371F096E8862F70E060E02AF031
:101330009A95660F771F881FDAF7880F969587951D
:1013400097F9089557FD9058440F551F59F05F3F86
:1013500071F04795880F97FB991F61F09F3F79F0D7
:1013600087950895121613061406551FF2CF469559
:10137000F1DF08C0161617061806991FF1CF8695DB
:101380007105610508940895E894BB2766277727BF
:10139000CB0197F908950E94DE090C944F0A0E9430
:1013A000410A38F00E94480A20F0952311F00C946D
:1013B000380A0C943E0A11240C94C5090E94A20913
:1013C00070F3959FC1F3950F50E0551F629FF00198
:1013D000729FBB27F00DB11D639FAA27F00DB11DB1
:1013E000AA1F649F6627B00DA11D661F829F22273A
:1013F000B00DA11D621F739FB00DA11D621F839FC1
:10140000A00D611D221F749F3327A00D611D231F96
:10141000849F600D211D822F762F6A2F11249F57E4
:1014200050409AF0F1F088234AF0EE0FFF1FBB1FE7
:10143000661F771F881F91505040A9F79E3F5105A6
:1014400080F00C94380A0C94C5095F3FE4F3983E91
:10145000D4F3869577956795B795F795E7959F5F50
:10146000C1F7FE2B880F911D9695879597F90895E2
:1014700097F99F6780E870E060E008959FEF80EC47
:10148000089500240A9416161706180609060895EA
:1014900000240A9412161306140605060895092E50
:1014A0000394000C11F4882352F0BB0F40F4BF2BBF
:1014B00011F460FF04C06F5F7F4F8F4F9F4F0895FF
:1014C00081E090E0F8940C94C00A052E97FB1EF47E
:1014D00000940E947C0A57FD07D00E948F0A07FCE7
:1014E00003D04EF40C947C0A50954095309521958C
:1014F0003F4F4F4F5F4F0895909580957095619540
:101500007F4F8F4F9F4F08950E94B10AA59F900D66
:10151000B49F900DA49F800D911D11240895A1E208
:101520001A2EAA1BBB1BFD010DC0AA1FBB1FEE1F5D
:10153000FF1FA217B307E407F50720F0A21BB30BA8
:10154000E40BF50B661F771F881F991F1A9469F724
:1015500060957095809590959B01AC01BD01CF0180
:101560000895A29FB001B39FC001A39F700D811D7C
:101570001124911DB29F700D811D1124911D08959C
:04158000F894FFCF0D
:101584003D3D3D01010000000000000094011001F8
:081594005D013B014F01DB0189
:107E0000112484B714BE81FFF0D085E080938100F7
:107E100082E08093C00088E18093C10086E0809377
:107E2000C20080E18093C4008EE0C9D0259A86E02C
:107E300020E33CEF91E0309385002093840096BBD3
:107E4000B09BFECF1D9AA8958150A9F7CC24DD24C4
:107E500088248394B5E0AB2EA1E19A2EF3E0BF2EE7
:107E6000A2D0813461F49FD0082FAFD0023811F036
:107E7000013811F484E001C083E08DD089C08234E0
:107E800011F484E103C0853419F485E0A6D080C0E4
:107E9000853579F488D0E82EFF2485D0082F10E0AE
:107EA000102F00270E291F29000F111F8ED06801E7
:107EB0006FC0863521F484E090D080E0DECF843638
:107EC00009F040C070D06FD0082F6DD080E0C81688
:107ED00080E7D80618F4F601B7BEE895C0E0D1E017
:107EE00062D089930C17E1F7F0E0CF16F0E7DF06D8
:107EF00018F0F601B7BEE89568D007B600FCFDCFD4
:107F0000A601A0E0B1E02C9130E011968C91119780
:107F100090E0982F8827822B932B1296FA010C0160
:107F200087BEE89511244E5F5F4FF1E0A038BF0790
:107F300051F7F601A7BEE89507B600FCFDCF97BE46
:107F4000E89526C08437B1F42ED02DD0F82E2BD052
:107F50003CD0F601EF2C8F010F5F1F4F84911BD097
:107F6000EA94F801C1F70894C11CD11CFA94CF0C13
:107F7000D11C0EC0853739F428D08EE10CD085E9AC
:107F80000AD08FE07ACF813511F488E018D01DD067
:107F900080E101D065CF982F8091C00085FFFCCF94
:107FA0009093C60008958091C00087FFFCCF809118
:107FB000C00084FD01C0A8958091C6000895E0E648
:107FC000F0E098E1908380830895EDDF803219F02E
:107FD00088E0F5DFFFCF84E1DECF1F93182FE3DFCA
:107FE0001150E9F7F2DF1F91089580E0E8DFEE27F6
:047FF000FF270994CA
:027FFE00040479
:0400000300007E007B
:00000001FF